:100000000C9435000C945D000C945D000C945D0024
:100010000C945D000C945D000C945D000C945D00EC
:100020000C945D000C945D000C94FC020C945D003B
:100030000C945D000C945D000C945D000C945D00CC
:100040000C945A020C945D000C94CA020C94A40205
:100050000C945D000C945D000C945D000C945D00AC
:100060000C945D000C945D00090411241FBECFEFB9
:10007000D8E0DEBFCDBF21E0AAE1B1E001C01D9212
:10008000A73CB207E1F711E0A0E0B1E0E2E8F8E058
:1000900002C005900D92AA31B107D9F710E0C5E36F
:1000A000D0E004C02197FE010E943904C433D10777
:1000B000C9F70E94AD030C9436040C940000AF9273
:1000C000BF92CF92DF92EF92FF920F931F93CF9345
:1000D000DF936C017B018B01040F151FEB015E01A7
:1000E000AE18BF08C017D10759F06991D601ED913C
:1000F000FC910190F081E02DC6010995892B79F7DB
:10010000C501DF91CF911F910F91FF90EF90DF908C
:10011000CF90BF90AF900895789484B5826084BDED
:1001200084B5816084BD85B5826085BD85B58160FB
:1001300085BDEEE6F0E0808181608083E1E8F0E05B
:100140001082808182608083808181608083E0E88A
:10015000F0E0808181608083E1EBF0E08081846069
:100160008083E0EBF0E0808181608083EAE7F0E06B
:1001700080818460808380818260808380818160CF
:1001800080838081806880831092C10008952FB79A
:10019000F8946091C3017091C4018091C501909160
:1001A000C6012FBF0895FC01538D448D252F30E0EB
:1001B000842F90E0821B930B541710F0CF96089574
:1001C00001970895FC01918D828D981761F0A28DA1
:1001D000AE0FBF2FB11D5D968C91928D9F5F9F7367
:1001E000928F90E008958FEF9FEF0895FC01918D1D
:1001F000828D981731F0828DE80FF11D858D90E08A
:1002000008958FEF9FEF0895FC01918D228D892F26
:1002100090E0805C9F4F821B91098F73992708950E
:10022000FC01A48DA80FB92FB11DA35ABF4F2C916B
:10023000848D90E001968F739927848FA689B78962
:100240002C93A089B1898C91837080648C93938D59
:10025000848D981306C00288F389E02D80818F7DFC
:1002600080830895EF92FF920F931F93CF93DF93B4
:10027000EC0181E0888F9B8D8C8D98131AC0E889E2
:10028000F989808185FF15C09FB7F894EE89FF89B1
:100290006083E889F98980818370806480839FBF4F
:1002A00081E090E0DF91CF911F910F91FF90EF904F
:1002B0000895F62E0B8D10E00F5F1F4F0F7311275F
:1002C000E02E8C8D8E110CC00FB607FCFACFE8899A
:1002D000F989808185FFF5CFCE010E941001F1CF11
:1002E000EB8DEC0FFD2FF11DE35AFF4FF0829FB70E
:1002F000F8940B8FEA89FB8980818062CFCFCF93FE
:10030000DF93EC01888D8823B9F0AA89BB89E8893D
:10031000F9898C9185FD03C0808186FD0DC00FB6E3
:1003200007FCF7CF8C9185FFF2CF808185FFEDCF61
:10033000CE010E941001E9CFDF91CF91089581E2B3
:1003400091E00E94040121E0892B09F420E0822F32
:100350000895CF92DF92EF92FF920F931F93CF9366
:10036000DF9305E011E0C0E0D1E00E94C700609398
:10037000290170932A0180932B0190932C01E09125
:100380002101F09122010284F385E02D81E291E0C8
:10039000099597FF83C00E94C700C0902901D090A3
:1003A0002A01E0902B01F0902C016C197D098E0937
:1003B0009F09C0902501D0902601E0902701F09080
:1003C00028016C157D058E059F05C8F2E0E0F1E07F
:1003D00081910E171F0791F4803391F481E080938F
:1003E0001A0110921E0110921D01DF91CF911F91F1
:1003F0000F91FF90EF90DF90CF900895803341F3FD
:1004000080911A01E5E0F1E0882321F130E020E05D
:1004100041E050E06AE08291082E000C990BC097F1
:10042000849FD001859FB00D949FB00D11242A0F99
:100430003B1FCA01689FA001699F500D112491E0E4
:10044000E030F90741F7309306012093050110923F
:100450001A01CBCF90E080E041E050E06AE02291C9
:10046000022E000C330B20533109249FD001259F0D
:10047000B00D349FB00D11248A0F9B1F9A01629F0B
:10048000A001639F500D112431E0E030F30739F7EC
:10049000019790931E0180931D01A7CF89930C179C
:1004A0001D0709F062CF92CF0E949F0181110C9429
:1004B000A90108951F920F920FB60F9211242F9346
:1004C0003F938F939F93AF93BF938091C30190917C
:1004D000C401A091C501B091C6013091C20123E0D1
:1004E000230F2D3758F50196A11DB11D2093C20190
:1004F0008093C3019093C401A093C501B093C6013A
:100500008091BE019091BF01A091C001B091C10145
:100510000196A11DB11D8093BE019093BF01A093D0
:10052000C001B093C101BF91AF919F918F913F9155
:100530002F910F900FBE0F901F90189526E8230F54
:100540000296A11DB11DD2CF1F920F920FB60F922E
:1005500011242F933F934F935F936F937F938F93C8
:100560009F93AF93BF93EF93FF9381E291E00E943B
:100570001001FF91EF91BF91AF919F918F917F916A
:100580006F915F914F913F912F910F900FBE0F9000
:100590001F9018951F920F920FB60F9211242F9350
:1005A0008F939F93EF93FF93E0913101F09132018C
:1005B0008081E0913701F091380182FD1BC090816C
:1005C00080913A018F5F8F7320913B01821741F038
:1005D000E0913A01F0E0EF5DFE4F958F80933A0194
:1005E000FF91EF919F918F912F910F900FBE0F90E0
:1005F0001F9018958081F4CF1F920F920FB60F9223
:1006000011242F933F938F939F9380910501909195
:100610000601029759F420911F0130912001809129
:100620001D0190911E0128173907BCF0109220017E
:1006300010921F0190917800809179008927982766
:1006400089279C01305830931C0120931B01909303
:10065000880080911B0180938A0080910501909110
:1006600006018330910509F457C08CF4813091055F
:1006700049F10297B9F180911B0190911C019058AA
:100680009093880080911B0180938A003CC0209148
:100690001B0130911C018430910509F44AC0059773
:1006A00051F780911D0190911E0112161306ACF0B6
:1006B000232B09F380911D0190911E019195819545
:1006C00091090BC080911B0190911C0100901D01AC
:1006D00002C0880F991F0A94E2F790931C0180933F
:1006E0001B01C9CF80911F01909120010196909329
:1006F000200180931F0120911D0130911E0182175E
:1007000093070CF0B8CF9F918F913F912F910F904D
:100710000FBE0F901F90189580911D0190911E01A2
:1007200020911B0130911C01821793070CF0A3CF7D
:10073000D4CF80911D0190911E01821793071CF464
:1007400080E090E4CACF91958195910928173907E7
:100750000CF091CF80E090ECC0CF0E948C00E09133
:100760003101F091320182E08083E0912D01F0911E
:100770002E011082E0912F01F09130018FEC8083E7
:1007800010923901E0913501F091360186E08083C5
:10079000E0913301F0913401808180618083E091A8
:1007A0003301F0913401808188608083E0913301CE
:1007B000F0913401808180688083E0913301F09171
:1007C000340180818F7D808380E680937C0085EE7C
:1007D00080937A0087E080937B0081E080937E00A5
:1007E00080EA8093800081E18093810080E28093A1
:1007F0006F00109287008FEF8093860084B186602F
:1008000084B978940E949F018823E1F30E94A90192
:10081000F9CFE1E2F1E01382128288EE93E0A0E0EA
:10082000B0E084839583A683B7838BE091E09183C6
:10083000808385EC90E09587848784EC90E09787AF
:10084000868780EC90E0918B808B81EC90E0938B9D
:10085000828B82EC90E0958B848B86EC90E0978B7A
:10086000868B118E128E138E148E0895F8940C942C
:100870003F04EE0FFF1F0590F491E02D0994F894CA
:02088000FFCFA8
:10088200FFFFFFFFFF01000000000032015F00D305
:0A089200007F010401E200F60000FF
:00000001FF
