:100000000C9435000C945D000C945D000C945D0024
:100010000C945D000C945D000C945D000C945D00EC
:100020000C945D000C945D000C945D000C945D00DC
:100030000C945D000C945D000C945D000C945D00CC
:100040000C94FE010C945D000C94CC010C94A60160
:100050000C945D000C9448020C945D000C945D00BF
:100060000C945D000C945D00650211241FBECFEF5F
:10007000D8E0DEBFCDBF11E0A0E0B1E0E4EFF6E0F4
:1000800002C005900D92A631B107D9F721E0A6E193
:10009000B1E001C01D92AF3BB207E1F710E0C5E34C
:1000A000D0E004C02197FE010E947203C433D1073F
:1000B000C9F70E9492020C944D030C940000FC01BD
:1000C000538D448D252F30E0842F90E0821B930BBD
:1000D000541710F0CF96089501970895FC01918D63
:1000E000828D981761F0A28DAE0FBF2FB11D5D9666
:1000F0008C91928D9F5F9F73928F90E008958FEF08
:100100009FEF0895FC01918D828D981731F0828DBB
:10011000E80FF11D858D90E008958FEF9FEF089512
:10012000FC01918D228D892F90E0805C9F4F821B76
:1001300091098F7399270895FC01A48DA80FB92FF9
:10014000B11DA35ABF4F2C91848D90E001968F73FF
:100150009927848FA689B7892C93A089B1898C911E
:10016000837080648C93938D848D981306C002886D
:10017000F389E02D80818F7D80830895EF92FF9237
:100180000F931F93CF93DF93EC0181E0888F9B8DBA
:100190008C8D98131AC0E889F989808185FF15C074
:1001A0009FB7F894EE89FF896083E889F989808197
:1001B0008370806480839FBF81E090E0DF91CF9166
:1001C0001F910F91FF90EF900895F62E0B8D10E088
:1001D0000F5F1F4F0F731127E02E8C8D8E110CC0F7
:1001E0000FB607FCFACFE889F989808185FFF5CF42
:1001F000CE010E949C00F1CFEB8DEC0FFD2FF11D85
:10020000E35AFF4FF0829FB7F8940B8FEA89FB897E
:1002100080818062CFCFCF93DF93EC01888D8823DC
:10022000B9F0AA89BB89E889F9898C9185FD03C059
:10023000808186FD0DC00FB607FCF7CF8C9185FF3E
:10024000F2CF808185FFEDCFCE010E949C00E9CFE7
:10025000DF91CF910895AF92BF92CF92DF92EF924C
:10026000FF920F931F93CF93DF936C017B018B0160
:10027000040F151FEB015E01AE18BF08C017D107B0
:1002800059F06991D601ED91FC910190F081E02D3A
:10029000C6010995892B79F7C501DF91CF911F918F
:1002A0000F91FF90EF90DF90CF90BF90AF900895A7
:1002B000789484B5826084BD84B5816084BD85B541
:1002C000826085BD85B5816085BDEEE6F0E0808108
:1002D00081608083E1E8F0E0108280818260808329
:1002E000808181608083E0E8F0E0808181608083AC
:1002F000E1EBF0E0808184608083E0EBF0E08081DE
:1003000081608083EAE7F0E080818460808380817F
:100310008260808380818160808380818068808327
:100320001092C1000895FC0101900020E9F7319777
:10033000AF01481B590BE0912201F091230102808B
:10034000F381E02DBC0182E291E009941F920F92AB
:100350000FB60F9211242F933F934F935F936F9398
:100360007F938F939F93AF93BF93EF93FF9382E21B
:1003700091E00E949C00FF91EF91BF91AF919F91FE
:100380008F917F916F915F914F913F912F910F903E
:100390000FBE0F901F9018951F920F920FB60F92DD
:1003A00011242F938F939F93EF93FF93E09132014A
:1003B000F09133018081E0913801F091390182FDA3
:1003C0001BC0908180913B018F5F8F7320913C0116
:1003D000821741F0E0913B01F0E0EE5DFE4F958F1A
:1003E00080933B01FF91EF919F918F912F910F90FF
:1003F0000FBE0F901F9018958081F4CF1F920F921F
:100400000FB60F9211242F933F938F939F93AF9327
:10041000BF9380911E0190911F01A0912001B09186
:10042000210130911D0123E0230F2D3758F501964E
:10043000A11DB11D20931D0180931E0190931F01EA
:10044000A0932001B09321018091190190911A018C
:10045000A0911B01B0911C010196A11DB11D8093BB
:10046000190190931A01A0931B01B0931C01BF9135
:10047000AF919F918F913F912F910F900FBE0F9051
:100480001F90189526E8230F0296A11DB11DD2CF0B
:100490001F920F920FB60F9211248F939F9380910A
:1004A000180181110BC08091780090917900909390
:1004B00017018093160181E0809318019F918F911D
:1004C0000F900FBE0F901F901895E2E2F1E013829B
:1004D000128288EE93E0A0E0B0E084839583A68347
:1004E000B78384E091E09183808385EC90E09587E9
:1004F000848784EC90E09787868780EC90E0918BEE
:10050000808B81EC90E0938B828B82EC90E0958BDA
:10051000848B86EC90E0978B868B118E128E138ED7
:10052000148E0895CF93DF93CDB7DEB7A1970FB6A2
:10053000F894DEBF0FBECDBF0E94580180917A00B3
:10054000876080937A0080917C00887F80937C0014
:1005500080917C00806480937C0080917A00806828
:1005600080937A0080917A00886080937A008091ED
:100570007A00806480937A00E0913201F091330137
:1005800082E08083E0912E01F0912F011082E091B2
:100590003001F09131018FEC808310923A01E091AB
:1005A0003601F091370186E08083E0913401F091CB
:1005B0003501808180618083E0913401F0913501C3
:1005C000808188608083E0913401F09135018081E1
:1005D00080688083E0913401F091350180818F7DC6
:1005E00080838AE0882E912CA12CB12C8091180157
:1005F000811101C0FFCFC0901601D09017010D2CC2
:10060000000CEE08FF08F7FE32C0E0912201F091E5
:1006100023010190F081E02D6DE282E291E00995E5
:1006200022273327A9012C193D094E095F0919A278
:10063000CE0181967C01CA01B901A50194010E94F5
:100640005003605DF70162937F012115310541057B
:10065000510589F7E114F10419F0C7010E949301D3
:1006600082E191E00E94930110921801BFCFA7018F
:10067000960119A2CE0181967C01CA01B901A5019A
:1006800094010E945003605DF70162937F01211580
:1006900031054105510589F7DDCFF8940C947803B5
:1006A000A1E21A2EAA1BBB1BFD010DC0AA1FBB1F76
:1006B000EE1FFF1FA217B307E407F50720F0A21BE8
:1006C000B30BE40BF50B661F771F881F991F1A9455
:1006D00069F760957095809590959B01AC01BD017F
:1006E000CF010895EE0FFF1F0590F491E02D0994BE
:0406F000F894FFCFAC
:1006F40000000000BE002B015F000B0190006E00A3
:0607040082000D0A000056
:00000001FF
